:040000008031202803
:100008007E1480312E00961E0A280B2813288C1E79
:100018000E280F2813288731702780311E28161EB6
:10002800162817281E280C1E1A281B281E28873158
:10003800CF2780317E100900803122282000ED0171
:10004800EE01A03084000030850028308731F62783
:1000580080317E10200085314B2D2000BF003008F4
:10006800C0003108C1003208C2003308C300340898
:10007800C4003508C5003608C6003708C700403038
:10008800860000308700473FB800B81B4C284E2830
:1000980001304F2800302000CA004A0803195528AB
:1000A80056287428C009C109C209C309C409C50969
:1000B800C609C709C00A031D7428C10A031D74288C
:1000C800C20A031D7428C30A031D7428C40A031D29
:1000D8007428C50A031D7428C60A031D7428C70A94
:1000E80021002308803A2000B80080303802031D20
:1000F80080280130210022020318832884288A28B6
:1001080001302000BB000030BC00922821002308E9
:100118002000BC00210022082000BB00210021088B
:100128002000BE00210020082000BD004A08031955
:100138009E289F28B328FF30BD07FF30BE3D4A08E0
:10014800031DA728A828AD282B30B9000030BA0015
:10015800B1282D30B9000030BA003908CA001F3064
:10016800C8000030C9002100C5012229FF30200045
:10017800C807FF30C93D0A30A000A101A201A301B0
:10018800A401A501A601A7014008A8004108A900EB
:100198004208AA004308AB004408AC004508AD007B
:1001A8004608AE004708AF00823167228031200040
:1001B8002108F4002008F30087313D2780317308B7
:1001C800303E2000B8004808A63E8600870138085F
:1001D8008100FF30BB07FF30BC3DFF30BD07FF305B
:1001E800BE3D0A30A000A101A201A301A401A501FE
:1001F800A601A7014008A8004108A9004208AA00D2
:100208004308AB004408AC004508AD004608AE0002
:100218004708AF0081316621803120002008C000E6
:100228002108C1002208C2002308C3002408C40012
:100238002508C5002608C6002708C7002000490869
:10024800803AB80080303802031D2C29013048025A
:10025800031C2F2930294A29200040084104420460
:1002680043044404450446044704031D3C293D292E
:10027800BA283C08803AB80080303802031D462965
:1002880001303B02031849294A29BA2820004A08A4
:1002980003194F2950295A29FF30C807FF30C93D93
:1002A8004808A63E860087014A0881004808A63EFD
:1002B800A4003E08A6003D08A5003F088631872611
:1002C80080310800F2012030860000308700473F67
:1002D800F000F01F7029712992292000A009A109B6
:1002E800A209A309A409A509A609A709A00A031D2B
:1002F8009029A10A031D9029A20A031D9029A30A87
:10030800031D9029A40A031D9029A50A031D9029FD
:10031800A60A031D9029A70AF201F20A28308600CE
:1003280000308700473FF000F01F9B299C29BF2918
:100338002000A809A909AA09AB09AC09AD09AE09A9
:10034800AF09A80A031DBB29A90A031DBB29AA0ACC
:10035800031DBB29AB0A031DBB29AC0A031DBB291E
:10036800AD0A031DBB29AE0A031DBB29AF0A013024
:10037800F0007008F20673308600003087000830FD
:10038800F00000301E00F00BC629200020082104D0
:100398002204230424042504260427040319D52948
:1003A800D629322AF101F10AE529A035A10DA20DBD
:1003B800A30DA40DA50DA60DA70D0130F000700822
:1003C800F107A71FE829E929D929F335F40DF50D17
:1003D800F60DF70DF80DF90DFA0D27082F02031D7C
:1003E8000F2A26082E02031D0F2A25082D02031D99
:1003F8000F2A24082C02031D0F2A23082B02031D91
:100408000F2A22082A02031D0F2A21082902031D88
:100418000F2A20082802031C122A132A242A20083B
:10042800A8022108A93B2208AA3B2308AB3B2408C1
:10043800AC3B2508AD3B2608AE3B2708AF3B731401
:10044800A736A60CA50CA40CA30CA20CA10CA00CFE
:100458000130F102031D312A322AE92972080319F1
:10046800362A372A552AF309F409F509F609F7094E
:10047800F809F909FA09F30A031D552AF40A031DB4
:10048800552AF50A031D552AF60A031D552AF70AA7
:10049800031D552AF80A031D552AF90A031D552A72
:1004A800FA0A73082000A0007408A1007508A200C9
:1004B8007608A3007708A4007808A5007908A600A4
:1004C8007A08A7000800F20128308600003087006B
:1004D800473FF000F01F712A722A932A2000A809CA
:1004E800A909AA09AB09AC09AD09AE09AF09A80A5F
:1004F800031D912AA90A031D912AAA0A031D912AFC
:10050800AB0A031D912AAC0A031D912AAD0A031DEB
:10051800912AAE0A031D912AAF0AF201F20A20308D
:10052800860000308700473FF000F01F9C2A9D2A74
:10053800BC2A2000A009A109A209A309A409A509A8
:10054800A609A709A00A031DBC2AA10A031DBC2AE3
:10055800A20A031DBC2AA30A031DBC2AA40A031D60
:10056800BC2AA50A031DBC2AA60A031DBC2AA70A81
:10057800200020082104220423042404250426043E
:1005880027040319C82AC92A1C2BF101F10AD82A01
:10059800A035A10DA20DA30DA40DA50DA60DA70DA7
:1005A8000130F0007008F107A71FDB2ADC2ACC2AEB
:1005B80027082F02031DFA2A26082E02031DFA2AED
:1005C80025082D02031DFA2A24082C02031DFA2AE5
:1005D80023082B02031DFA2A22082A02031DFA2ADD
:1005E80021082902031DFA2A20082802031CFD2AD3
:1005F800FE2A0E2B2008A8022108A93B2208AA3BA4
:100608002308AB3B2408AC3B2508AD3B2608AE3B92
:100618002708AF3BA736A60CA50CA40CA30CA20C6C
:10062800A10CA00C0130F102031D1B2B1C2BDC2A92
:1006380072080319202B212B3F2BA809A909AA0905
:10064800AB09AC09AD09AE09AF09A80A031D3F2BD8
:10065800A90A031D3F2BAA0A031D3F2BAB0A031D42
:100668003F2BAC0A031D3F2BAD0A031D3F2BAE0ADF
:10067800031D3F2BAF0A20002808A0002908A1006D
:100688002A08A2002B08A3002C08A4002D08A50006
:100698002E08A6002F08A70008002000D9004B0844
:1006A80086008701403FCD00413FCE004D088400C1
:1006B8004E0885001200253A031D632B642BDB2BA3
:1006C8004B08860087010130810741310318810AF0
:1006D8002100A001A10103100030031801302000FF
:1006E800ED00FF302100A200FF30A30020004B08DE
:1006F80086008701403FDA00413FDB005A0884004A
:100708005B0885001200643A03198B2B8C2B962BFF
:100718005A0884005B0885001200693A031D952B6E
:10072800962BD12B4C08860087010108840085018F
:1007380002308107003FCD00013FCE004D08D100B7
:100748004E08D200890D893B8909D300D400D50011
:10075800D600D700D8005A08013ECD0000305B3DD6
:10076800CE004B08860087014D08C03F4E08C13FA8
:100778005108B0005208B1005308B2005408B30041
:100788005508B4005608B5005708B6005808B70011
:100798005908803131208331F32B20004B08860023
:1007A80087010130810741310318810AF32B4B0877
:1007B80086008701403FCD00413FCE004D088400B0
:1007C8004E0885000008CF00D0014F08F2005008FD
:1007D800F3005908F400863146268331D12B0800EE
:1007E800E830F6000330F70020002508F900240857
:1007F800F8008431EB24833177082100C90076089A
:10080800C800E830F0000330F10020002508F300AC
:100818002408F2008531A725833171082000A5003E
:100828007008A4006430F6000030F7002508F900CD
:100838002408F8008431EB24833177082100CB00A9
:100848007608CA006430F0000030F1002000250866
:10085800F3002408F2008531A725833171082000B0
:10086800A5007008A4000A30F6000030F70025083B
:10087800F9002408F8008431EB248331770821003B
:10088800CD007608CC000A30F0000030F1002000DE
:100898002508F3002408F2008531A7258331710863
:1008A8002100CF007008CE004E088431882483319F
:1008B800083020009700C8300032890B602C2100D6
:1008C8004C08843188248331043020009700C830D4
:1008D8000032890B6C2C21004A088431882483312A
:1008E800023020009700C8300032890B782C210094
:1008F8004808843188248331013020009700C830AB
:100908000032890B842C0800F400FF308731E82777
:100918008431C02C3F308731EF278431EA2C0630F0
:100928008731EF278431EA2C5B308731EF27843118
:10093800EA2C4F308731EF278431EA2C6630873133
:10094800EF278431EA2C6D308731EF278431EA2C88
:100958007D308731EF278431EA2C07308731EF2744
:100968008431EA2C7F308731EF278431EA2C6730D5
:100978008731EF278431EA2C7408F200F301F21B67
:10098800F3037308003A0319CA2CEA2C7208003AD8
:1009980003198E2C013A0319932C033A0319982C46
:1009A800013A03199D2C073A0319A22C013A03199D
:1009B800A72C033A0319AC2C013A0319B12C0F3AAE
:1009C8000319B62C013A0319BB2CEA2C08002000A5
:1009D800A101F71FF02CF12CF82CF609F709F60AFB
:1009E8000319F70AA101A10AF91FFB2CFC2C052DFC
:1009F800F809F909F80A0319F90A0130FA007A081E
:100A0800A106A201A3017608770403190C2D0D2D68
:100A18003C2DA001A00A192D0130F635F70D890BE0
:100A2800112D0130FA007A08A007F71F1C2D1D2D83
:100A3800102D0130A235A30D890B1E2D77087902E0
:100A4800031D282D76087802031C2B2D2C2D312D03
:100A58007608F8027708F93B22140130F736F60CCD
:100A6800890B322D0130A002031D3B2D3C2D1D2D7D
:100A780021080319402D412D462DA209A309A20AD8
:100A88000319A30A2308F7002208F6000800873193
:100A9800982785318B170B1720009401103092008E
:100AA80000302000E3009030E4000630F60000300B
:100AB800F70021004708F1004608F0003030F20046
:100AC8000030F3008731022785317108F90070087A
:100AD800F8008431EB24853177082000E600760899
:100AE800E5008731B72785310630F6000030F7007A
:100AF80021004708F1004608F0003030F2000030CD
:100B0800F3008731022785317108F9007008F80071
:100B18008431EB24853177082000EA007608E90063
:100B28006A08A5006908A4008331F42385310530DB
:100B38002000E800DD30890B9F2DE80B9F2D003247
:100B4800542D80312028F601F31FAB2DAC2DB32D89
:100B5800F209F309F20A0319F30AF601F60AF11F7A
:100B6800B62DB72DBC2DF009F109F00A0319F10AC9
:100B7800700871040319C12DC22DEB2DF501F50A7A
:100B8800CE2D0130F035F10D890BC62D0130F40062
:100B98007408F507F11FD12DD22DC52D71087302E8
:100BA800031DD82D70087202031CDB2DDC2DE02DEF
:100BB8007008F2027108F33B0130F136F00C890B32
:100BC800E12D0130F502031DEA2DEB2DD22D76081B
:100BD8000319EF2DF02DF52DF209F309F20A031987
:100BE800F30A7308F1007208F000080020009A0167
:100BF800990196019701980107309500EF3091000F
:100C0800FF309200BF309300FF309400FF303E0069
:100C1800D9007F30CE00EF30C3000730E400EF305A
:100C2800B800DA01E501C401B901CF01E601BA0152
:100C3800C501D001DB01FF30BB00FF30C600FF302B
:100C4800D100FF30DC000730E700FF30BC00FF3088
:100C5800C700FF30D200FF30DD000730E8004A123D
:100C680049164812D630F0000F30F1008F31EE27C8
:100C780085312E00161617303D00CB0010303E008F
:100C8800A6000800740803194A2E4B2E502E74082B
:100C9800031D4F2E502E552E72088F31FA2786319C
:100CA800862E7408083E8600870116000104031981
:100CB8005E2E5F2E7D2E7408083E86008701403F19
:100CC800F500413FF6007408023E86008701403F68
:100CD800F700413FF8007808803AF9007608803A32
:100CE8007902031D792E7508770203187C2E7D2E54
:100CF800862E7408023E8600870101308107413143
:100D08000318810A08002000AB00A61B8C2E8D2E2C
:100D1800922E2608AA002508A900942EA901AA0146
:100D2800A701A801A62E2030F2000030F300200011
:100D38002B08F40086314626863101302000A707AB
:100D48000030A83D2808803AFD002A08803A7D0234
:100D5800031DB02E29082702031CB32EB42E972E8C
:100D680020002B08FA0024088631BC2686310800AA
:100D78002000A300A101A201D22E2008FB00FC0143
:100D88007B08F2007C08F3007A08F40086314626D6
:100D9800863101302000A1070030A23D2108230739
:100DA800FB007B08860087010108A0002008031DBE
:100DB800DE2EDF2EC12E0800083022009F00903062
:100DC8009D0024309E0019309B009C010030F000EB
:100DD8000030F1008F31E22786310030F00000301A
:100DE800F1008F31E82786310030F0000030F10043
:100DF8008F31DC2786312000EE010800F401F5016F
:100E0800701C072F082F0C2F7208F4077308F53D84
:100E18000130F235F30D890B0D2F0130F136F00C4E
:100E2800890B122F70087104031D1B2F1C2F042F10
:100E38007508F1007408F00008002000E0005D0863
:100E4800E2005C08E100302F6130CB005E08CC0086
:100E580060088331512387312000610884006208CB
:100E680085001200031D392F3A2F282FDC01DD01E0
:100E780008007408803AF50080307502031D462F7B
:100E8800013073020318492F4A2F562F7309F500B2
:100E98007409F600F50A0319F60A7508F3007608CE
:100EA800F400562F0800643020009F000B309D008E
:100EB800DC309C001D08EC001C08EB002E008C1296
:100EC80096168430F0000730F1008F31F42787310F
:100ED800903020009E0008002E008C1220006C0824
:100EE8009D006B089C0021005608570403197D2FAC
:100EF8007E2F832F57088A0056080A00873108007A
:100F080003102000161E031403188B2F8E2F2000A9
:100F18001616902F2000161221002508C700240855
:100F2800C600A401A50108008731D827873185317B
:100F3800FA2587318731E02787318731572787316D
:100F48008631E02687310800210058085904031922
:100F5800AE2FAF2FB42F59088A0058080A008731DE
:100F68003E004A12080065302000E7006408DD00F2
:100F78006308DC006730DE000030873121278731C5
:100F88000800F0002E000F1ECA2FCB2FC62F7008A6
:100F980022009A0008003E004A1ED32FD42FD72FD4
:100FA8008731A827873108002F00960197019801FB
:100FB80099019A019B010800603031008D008F0172
:100FC8009101930192010800F1007108F000700886
:100FD800200099040800F1007109F0007008200051
:100FE80099050800640080010131890BF72F00344E
:101FAC0001302100A4070030A53D08007108210074
:101FBC00D1007008D000080071082100D50070080D
:101FCC00D400080071082100D3007008D20008006A
:101FDC0071082100D9007008D80008007108210090
:101FEC00D7007008D6000800F10071088731C527AA
:0E1FFC008F3108002534693430340A34003443
:020000040001F9
:08000000FF3FFF3FFF3FFF3F00
:0A000E00EC3FFF3F9F3FFF3FFF3F25
:00000001FF
